:100000000C947A040C94A2040C94A2040C94A20400
:100010000C94A2040C94A2040C94A2040C94A204C8
:100020000C94A2040C94A2040C945C0F0C940B0E80
:100030000C9452060C94A2040C94A2040C94A204F6
:100040000C94A2040C94A2040C94A2040C94A20498
:100050000C94A2040C94A2040C94A2040C94440AE0
:100060000C94A2040C94A2040C94A2040C94A20478
:100070000C94A2040C94A2040C94A2040C94A20468
:100080000C94A2040C94A2040C94A2040C9469068F
:100090000C94A2040C94A2040C94A2040C94A20448
:1000A0000C94A2040C94A2040C94A204430B460BDF
:1000B000390B3D0B670B670B670B4A0B4E0B520B53
:1000C000580B5C0B670B620B2D00636C65617264EF
:1000D0006973706C6179202D3E202D20436C656121
:1000E000722074686520646973706C617900756E44
:1000F000706C6F7420696E746C6973743A73747287
:10010000202D3E202D204C69676874207570206179
:1001100020706978656C20617420782C79202D20FE
:10012000782C79206973207472656174656420612C
:1001300073206120737472696E6720666F72207419
:100140006865206D6F6D656E7400706C6F742069EA
:100150006E746C6973743A737472202D3E202D2076
:100160004C69676874207570206120706978656CCF
:1001700020617420782C79202D20782C79206973C7
:1001800020747265617465642061732061207374EA
:1001900072696E6720666F7220746865206D6F6D7E
:1001A000656E74007363726F6C6C737472696E67E2
:1001B000206D796172673A737472202D3E207265EA
:1001C00073756C743A696E74202D206765742062B3
:1001D0007574746F6E207374617465202D204120D6
:1001E0006F722042007363726F6C6C737472696E0D
:1001F00067206D796172673A737472202D3E202DED
:10020000205363726F6C6C2061206D65737361673E
:1002100065006579656F6666206D796172673A730E
:100220007472202D3E202D205377697463682065F9
:100230007965206F6666204C206F722052006579C8
:10024000656F6E206D796172673A737472202D3E0E
:10025000202D2053776974636820657965206F6E5F
:10026000204C206F7220520020000000000021046A
:1002700004040004220A0A000000230A0F0A0F0ADD
:1002800024060D060B0625090204090026060409AA
:1002900006002708080000002801020202012908C0
:1002A000040404082A000A040A002B00040E0400B7
:1002B0002C00000004042D00000E00002E000000A1
:1002C00004002F020204080830040A0A0A04310458
:1002D0000C040404320E0106080F330F0102090654
:1002E00034080A0A0F02350F0806010E3607080EF9
:1002F000090E370F010204043806090609063907FA
:10030000090701013A00040004003B000400040452
:100310003C01020402013D000E000E003E040201F9
:1003200002043F060902000640070B0B08064106BF
:1003300009090F09420E090E090E430708080807AC
:10034000440E0909090E450F080E080F460F080E46
:1003500008084707080B09074809090F0909490E4A
:100360000404040E4A0F010109064B090A0C0A098C
:100370004C080808080F4D090F0F0F094E090D0B07
:100380000B094F0609090906500E090E0808510607
:1003900009090603520E090E090953070806010E42
:1003A00054070202020255090909090656090909FA
:1003B0000A0457090B0F0F095809090609095909B9
:1003C000050204085A0F0204080F5B03020202032D
:1003D0005C04040201015D0C0404040C5E040A00C8
:1003E00000005F000000000F6004020000006100D8
:1003F0000709070062080E090E00630007080700DE
:100400006401070907006506090E07006603040E6C
:10041000040067000F090F0F68080E09090069063C
:10042000000606006A02000404086B080B0E0900AF
:100430006C04040406006D000E0B0B006E000C0A29
:100440000A006F000609060070000E090E08710010
:1004500007090701720003040400730003060E007D
:100460007404060402007500090907007600090AF1
:1004700004007700090B06007800090609007900DE
:10048000090D020C7A000F040F007B030206020321
:100490007C04040404047D0C0406040C7E050A009C
:1004A00000000000000200080E0000030401000B21
:1004B000000000000000000000000000000000003C
:1004C0000408020110408040102040804080080253
:1004D00004018040201002011080102040400404DC
:1004E00004040403040502020202040302020202DD
:1004F00006060606060604040202020400000000C6
:100500002300260029002C002F00000000002500F9
:1005100028002B002E00310000C18081C112010093
:100520000202000040412336800001010200011256
:10053000010002000000404123368000010102005A
:10054000011803410072006400750069006E006FBD
:100550000020004C004C0043002203410072006464
:1005600000750069006E006F0020004C0065006F90
:10057000006E006100720064006F00040309040053
:10058000000000000000002A2B28000000000000EE
:100590000000000000000000000000000000002C2F
:1005A0009EB4A0A1A2A434A6A7A5AE362D373827A5
:1005B0001E1F20212223242526B333B62EB7B89F31
:1005C0008485868788898A8B8C8D8E8F9091929373
:1005D0009495969798999A9B9C9D2F3130A3AD3511
:1005E0000405060708090A0B0C0D0E0F1011121353
:1005F0001415161718191A1B1C1DAFB1B0B5000938
:10060000040200010300000009210101000122652C
:10061000000705840340000105010902A101090149
:10062000A10085010509190129031500250195037C
:1006300075018102950175058103050109300931B4
:1006400009381581257F750895038106C0C005010D
:100650000906A1018502050719E029E71500250112
:100660007501950881029501750881039506750845
:10067000150025650507190029658100C0080B00D4
:100680000202020100090400000102020000052428
:1006900000100105240101010424020605240600BE
:1006A000010705810310004009040100020A00004F
:1006B00000070502024000000705830240000032E7
:1006C00030303A4445562052454144593A0034307E
:1006D000343A66756E636E616D65204E6F742046A8
:1006E0006F756E643A2D002D003230303A537563C9
:1006F000636573733A003430343A66756E636E61C5
:100700006D65204E6F7420466F756E643A2D002D16
:10071000003230303A537563636573733A00353095
:10072000303A4261642056616C75653A2D00343070
:10073000343A417474726962757465204E6F742026
:10074000466F756E643A2D003230303A53756363EC
:100750006573733A2D003430303A4661696C3A73F0
:10076000657420617474726962757465206D757347
:100770007420626520676976656E20612076616C01
:100780007565003430343A41747472696275746509
:10079000204E6F7420466F756E643A2D00323030F3
:1007A0003A466F756E643A003430303A4661696C8F
:1007B0003A53686F756C64206E6F7420686176655B
:1007C0002073706163657320696E206765742063B0
:1007D0006F6D6D616E64003430343A4E6F20686521
:1007E0006C7020666F756E643A003230303A48653E
:1007F0006C7020666F756E643A003230303A48652E
:100800006C7020666F756E643A003430303A466121
:10081000696C3A43616E6E6F742068616E646C65DA
:100820002073706163657320696E206E616D6573FE
:10083000207768656E2067657474696E67206865E7
:100840006C70003230303A4445562052454144598C
:100850003A003230303A48656C7020666F756E64CD
:100860003A68656C70202D3E2068656C7074657800
:10087000743A737472202D20747279202768656C25
:10088000702068656C70272C202766756E6373274F
:1008900020616E642027617474727327002C00320B
:1008A00030303A46554E4353204F4B3A70696E678D
:1008B0002C646576696E666F2C66756E63732C6149
:1008C000747472732C7365742C6765742C68656C12
:1008D00070003230303A4154545253204F4B3A005A
:1008E0003230303A4F4B3A706F6E6700370AE8107B
:1008F000ED11430A11241FBECFEFDAE0DEBFCDBFFA
:1009000013E0A0E0B1E0ECE9FAE202C005900D923C
:10091000A839B107D9F725E0A8E9B3E001C01D92D5
:10092000A83DB207E1F714E0C9E7D4E004C021977D
:10093000FE010E942715C637D107C9F70E941E0A7B
:100940000C94B8140C9400008AE291E0089581E7B9
:1009500091E0089583E391E0089580E0089580E7B1
:1009600091E0089584E991E008950C940112CF93E9
:10097000DF93EB0162E771E0CE010E94C614892B80
:1009800069F168E771E0CE010E94C614892B31F14C
:100990006FE771E0CE010E94C614892BF9F06CE874
:1009A00071E0CE010E94C614892BC1F068E971E0A4
:1009B000CE010E94C614892B89F066E971E0CE0150
:1009C0000E94C614892B51F063E671E0CE010E94AB
:1009D000C61421E0892B19F020E001C021E0822F0C
:1009E000DF91CF910895CF93DF93EB0162E771E040
:1009F000CE010E94C614892B19F46EE372E03EC04A
:100A000068E771E0CE010E94C614892B19F462E1F7
:100A100072E034C06FE771E0CE010E94C614892BEA
:100A200019F465EE71E02AC06CE871E0CE010E9415
:100A3000C614892B19F464EA71E020C068E971E0FA
:100A4000CE010E94C614892B19F46AE471E016C025
:100A500066E971E0CE010E94C614892B19F46EEE8E
:100A600070E00CC063E671E0CE010E94C614892BD1
:100A700019F46AEC70E002C068EC70E086E895E07A
:100A8000DF91CF910C943E0C8F929F92AF92BF92C8
:100A9000CF92DF92EF92FF920F931F93CF93DF934A
:100AA000EC018CE495E0812C912C8401060F171F3A
:100AB00028813981021713077CF525E082169104FD
:100AC00059F1FA017F01E40EF51E2A813B81E216FD
:100AD000F306ECF4E530F105D4F45C01AE0EBF1E74
:100AE000C880D980EC9C9001ED9C300DFC9C300DB1
:100AF0001124200F311F220F331FEC80FD802E0D9B
:100B00003F1DD9012C91D5012C933196DBCFBFEF3E
:100B10008B1A9B0A0596C9CFDF91CF911F910F9138
:100B2000FF90EF90DF90CF90BF90AF909F908F900D
:100B3000089523E0969587952A95E1F7BC0180E01A
:100B400090E00C94B30AE0EEF0E080818160808355
:100B5000F89469E170E080E090E00E94B30A84B705
:100B6000877F84BF0FB6F894A89580916000886154
:100B700080936000109260000FBE1092C10010922E
:100B8000BF001092BE00109281001092710010926E
:100B900085001092840019BC1092DA00EEE6F0E0B5
:100BA000108280E28093D80080E88093D70088E0AC
:100BB0008093D900108248E350E060E070E080E06C
:100BC00090E0DC01E82FF42F09940895809108014A
:100BD0000E94980B019711F40C94A30508955C9A58
:100BE0005E9A5F9A2D9A479A623019F128F466232B
:100BF00041F0613091F03FC0633039F1643089F1E8
:100C00003AC02F9895E0899FF0011124E45BFA4FD8
:100C10009081992381F15B9A2EC05B9895E0899F22
:100C2000F0011124E45BFA4F9181992321F15A9A42
:100C300022C05A9895E0899FF0011124E45BFA4F95
:100C400092819923C1F0599A16C0599895E0899FCD
:100C5000F0011124E45BFA4F9381992361F0589AD3
:100C60000AC0589895E0899FF0011124E45BFA4F7F
:100C7000948191112F9A823079F028F4882341F0E1
:100C8000813041F00895833049F0843049F008956F
:100C90005C9808955E9808955F9808952D9808953A
:100CA000479808951F920F920FB60F9211248F93B9
:100CB00083E08093910083B7817F83BF8091430558
:100CC0008F5F809343058F910F900FBE0F901F9001
:100CD00018951F920F920FB60F9211242F933F93E6
:100CE0004F935F936F937F938F939F93AF93BF9334
:100CF000CF93DF93EF93FF9383EF9FEF9093950054
:100D000080939400D0919903C0919803D53080F4DA
:100D10006C2F8D2F0E94EF05CF5FC53019F0C09367
:100D200098032DC010929803DF5FD093990327C0DA
:100D300081E08C0F80939803CC2319F0C13059F0D7
:100D400013C02F98479A8091040190910501892B37
:100D5000B1F02B9A14C02B9880910201909103015D
:100D6000892B69F0769A0BC07698109298031092AE
:100D700099031092910083B7817F846083BF809133
:100D8000000190910101181619060CF090C04091D5
:100D900048055091490560914A0570914B054F5F98
:100DA0005F4F6F4F7F4F483E2BEC52076105710537
:100DB00049F0409348055093490560934A05709364
:100DC0004B051CC0109248051092490510924A0527
:100DD00010924B05409144055091450560914605A0
:100DE000709147054F5F5F4F6F4F7F4F40934405B2
:100DF000509345056093460570934705880F991FEA
:100E0000092E000CAA0BBB0B4091440550914505DF
:100E10006091460570914705481759076A077B0797
:100E20000CF445C060E080911E010E94680B60E0F8
:100E3000809165050E94680B60E080911C010E9412
:100E4000680B60E080911A010E94680B60E080915D
:100E500018010E94680B60E0809116010E94680BE7
:100E600060E0809114010E94680B60E080911201A3
:100E70000E94680B60E0809110010E94680B60E0A6
:100E800080910E010E94680B60E080910C010E942D
:100E9000680B60E080910A010E94680B83B7817F34
:100EA000846083BFF89483B7816083BF8895FF9186
:100EB000EF91DF91CF91BF91AF919F918F917F91F2
:100EC0006F915F914F913F912F910F900FBE0F90B7
:100ED0001F9018950F931F93CF93DF9315B888EF4A
:100EE00084B918B880EC87B91BB88FED8AB91EB8E1
:100EF00084E48DB911BA10BAE1E6F0E080E88083AD
:100F000082E08083E1E9F0E0108283EF9FEF90932D
:100F10009500809394001092900083E08083E1E735
:100F2000F0E080818160808384B7877F84BFE0E6C2
:100F3000F0E080818861808380E4808385B7806869
:100F400085BF85B7806885BF0CE011E061E0F801DE
:100F500080810E94680BCAE0D1E061E088810E9434
:100F6000680B0E94E60560E0F80180810E94680B32
:100F700060E08881DF91CF911F910F910C94680BF5
:100F8000853060F4653050F495E0899FF0011124BC
:100F9000E60FF11DE45BFA4F81E080830895853010
:100FA00058F4653048F495E0899FF0011124E60F6C
:100FB000F11DE45BFA4F10820895CF93DF93D0E0E8
:100FC000C0E06C2F8D2F0E94CF07CF5FC530C9F7CF
:100FD000DF5FD530A9F7DF91CF910895982F9F7DDE
:100FE000913411F09C3419F48091080105C08F7C74
:100FF000823421F4809106010C94980B8FEF9FEFBF
:101000000895982F9F7D913411F09C3421F47093B2
:101010000501609304018F7C823421F470930301F5
:1010200060930201089561E070E00C94010860E0B3
:1010300070E00C940108AF92BF92CF92DF92EF92D2
:10104000FF920F931F93CF93DF93CDB7DEB76C97CB
:101050000FB6F894DEBF0FBECDBF8C01FC01E0805F
:10106000F180C7010597EA59FF4F97FF0CC0019027
:10107000F081E02D2081022E000C330B205231092B
:10108000E0E0F0E02BC065E070E00E941315CB01BA
:10109000D801A859BF4FAD90BC90B5010E9413155F
:1010A0009C010196C080D180F601E20FF31FE08120
:1010B0000E2E000CFF0BB0978A159B056CF4B50142
:1010C0000E941315D601A80FB91F2C91022E000CF7
:1010D000330B2052310902C020E030E0DE01579688
:1010E00046E04E9FC0014F9F900D112460E070E0DC
:1010F000AD01FB01E80FF91FE859FD4FE491ED93B5
:101100006F5F7F4F66307105A1F7DE01119666E0D3
:10111000629FC001639F900D112460E070E09D010B
:10112000FB01E80FF91FE859FD4FE491ED936F5F64
:101130007F4F66307105A1F7F80160E070E06F5FE6
:101140007F4FDA01A60FB71F8C91D901A60FB71FE9
:101150009C9183FBAA27A0F9A283138282FBAA2772
:10116000A0F9A483158281FBAA27A0F9A683178280
:101170008170808711861386128693FB882780F9F9
:101180008487158692FB882780F98687178691FBCE
:10119000882780F9808B118A9170928B138A158A27
:1011A000148A74966530710551F68AE090E09A8B46
:1011B000898B7C8B6B8B0E5F1F4F1E8B0D8BC7013A
:1011C0000E94131540E050E0BC01CE0141960E9400
:1011D00044056C960FB6F894DEBF0FBECDBFDF910D
:1011E000CF911F910F91FF90EF90DF90CF90BF9024
:1011F000AF900895BF92CF92DF92EF92FF920F933C
:101200001F93CF93DF93EC016B0100E010E07C01B2
:1012100088E6E80EF11C85E0B82EF70120813181C7
:10122000B29EC001B39E900D112408171907E4F473
:10123000CE010E941B08288139812F5F3F4F3983DF
:101240002883F70140815181B49EC001B59E900D65
:1012500011242817390714F019821882C6010E9438
:1012600099050F5F1F4FD9CFDF91CF911F910F913C
:10127000FF90EF90DF90CF90BF900895CF93DF93D2
:10128000CDB7DEB7C657D1090FB6F894DEBF0FBE93
:10129000CDBFDE01A959BF4F11969C938E931A8240
:1012A0001982FE01339611921192EA17FB07D9F7C2
:1012B000FC0101900020E9F73197E81BF90BAB9690
:1012C000FFAFEEAFAB97CE0101960E94FA08CA5865
:1012D000DF4F0FB6F894DEBF0FBECDBFDF91CF91C9
:1012E0000895EF92FF920F931F93CF93DF937C01AA
:1012F0008B01EA0162E771E0C8010E94C614892BE4
:1013000021F488810E94130868C068E771E0C80171
:101310000E94C614892B21F488810E9417085DC0A1
:101320006FE771E0C8010E94C614892B31F462E3B3
:1013300070E0CE010E943E0950C06CE871E0C80127
:101340000E94C614892B51F488810E94EE07B701D0
:101350006E567F4F4AE00E94D6143FC068E971E0A4
:10136000C8010E94C614892BA1F46CE270E0CE0182
:101370000E94BB14FC0111928F01CE010E949A14AD
:10138000C82FC8010E949A14682F8C2F0E94C00792
:1013900024C066E971E0C8010E94C614892BA1F43B
:1013A0006CE270E0CE010E94BB14FC0111928F012F
:1013B000CE010E949A14C82FC8010E949A14682F67
:1013C0008C2F0E94CF0709C063E671E0C8010E941C
:1013D000C614892B11F40E94DD0788EC90E0DF91A0
:1013E000CF911F910F91FF90EF9008950E946A078F
:1013F00010929C0310929D0310929E0310929F03E3
:101400001092A0031092A1031092A2031092A303C2
:1014100010929B0310929A0381E090E09093050153
:1014200080930401909303018093020184EA93E086
:101430000C94011284EA93E00C9490140E94D90A4F
:1014400080E795E00E943E0F109205011092040182
:1014500010920301109202010E94F609C0E0D0E050
:101460000E941A0A2097E1F30E940000F9CFE4EAF3
:10147000F3E01282148213821092360481EA91E022
:1014800091838083089508951F920F920FB60F9253
:1014900011242F933F938F939F93AF93BF9380918A
:1014A000680590916905A0916A05B0916B0530912E
:1014B000670523E0230F2D3720F40196A11DB11DF0
:1014C00005C026E8230F0296A11DB11D20936705D4
:1014D0008093680590936905A0936A05B0936B05A6
:1014E00080916C0590916D05A0916E05B0916F058E
:1014F0000196A11DB11D80936C0590936D05A0937D
:101500006E05B0936F05BF91AF919F918F913F9101
:101510002F910F900FBE0F901F9018953FB7F89422
:1015200080916C0590916D05A0916E05B0916F054D
:1015300026B5A89B05C02F3F19F00196A11DB11D2E
:101540003FBFBA2FA92F982F8827820F911DA11D69
:10155000B11DBC01CD0142E0660F771F881F991FA6
:101560004A95D1F70895CF92DF92EF92FF92CF93F1
:10157000DF936B017C010E948E0AEB01C114D10440
:10158000E104F10479F00E948E0A6C1B7D0B683E29
:101590007340A0F381E0C81AD108E108F108C851EE
:1015A000DC4FECCFDF91CF91FF90EF90DF90CF90A9
:1015B0000895789484B5826084BD84B5816084BDCB
:1015C00085B5826085BD85B5816085BDEEE6F0E0BC
:1015D000808181608083E1E8F0E010828081826018
:1015E0008083808181608083E0E8F0E08081816099
:1015F0008083E1E9F0E08081826080838081816086
:101600008083E0E9F0E0808181608083E1ECF0E0BC
:10161000808184608083808182608083808181601A
:101620008083E3ECF0E0808181608083E0ECF0E097
:10163000808182608083E2ECF0E080818160808341
:10164000EAE7F0E08081846080838081826080832B
:10165000808181608083808180688083089590E0AC
:10166000FC013197EE30F10590F5EA5AFF4F0C94EA
:101670002715809180008F7703C0809180008F7D37
:1016800080938000089584B58F7702C084B58F7DE4
:1016900084BD0895809190008F7707C0809190005D
:1016A0008F7D03C080919000877F80939000089584
:1016B0008091C0008F7703C08091C0008F7D8093A0
:1016C000C00008958091C200877F8093C200089572
:1016D0001F93CF93DF93282F30E0F901EE55FB4F96
:1016E0008491F901E054FB4FD491F901E252FB4F90
:1016F000C491CC23C9F0162F81110E942F0BEC2F1F
:10170000F0E0EE0FFF1FE65FFA4FA591B4918FB79F
:10171000F894111105C09C91ED2FE095E92302C0CA
:10172000EC91ED2BEC938FBFDF91CF911F9108953A
:10173000CF93DF93282F30E0F901EE55FB4F8491D2
:10174000F901E054FB4FD491F901E252FB4FC491EF
:10175000CC2391F081110E942F0BEC2FF0E0EE0FC3
:10176000FF1FE450FB4FA591B491EC91ED2381E074
:1017700090E021F480E002C080E090E0DF91CF9122
:101780000895CF92DF92EF92FF920F931F93CF9322
:10179000DF936C01EB017B01E40EF51E00E010E02D
:1017A000CE15DF0561F06991D601ED91FC910190B4
:1017B000F081E02DC6010995080F191FF1CFC8016E
:1017C000DF91CF911F910F91FF90EF90DF90CF901D
:1017D00008956115710579F0FB0101900020E9F78A
:1017E0003197AF01461B570BDC01ED91FC91028054
:1017F000F381E02D099480E090E00895EF92FF924C
:101800000F931F93CF93DF937C01FB0100E010E067
:101810006491EF012196662361F0D701ED91FC916F
:101820000190F081E02DC7010995080F191FFE01F5
:10183000EFCFC801DF91CF911F910F91FF90EF90F3
:1018400008950C94E90BDC01ED91FC910190F0817D
:10185000E02D09940F931F93CF93DF93EC016DE07C
:101860000E94230C8C016AE0CE010E94230C800FA1
:10187000911FDF91CF911F910F9108950F931F93A7
:10188000CF93DF93EC010E94FE0B8C01CE010E94EE
:101890002A0C800F911FDF91CF911F910F91089516
:1018A0000F931F93CF93DF93EC010E94E90B8C0100
:1018B000CE010E942A0C800F911FDF91CF911F91C2
:1018C0000F910895615030F02091F100FC012083C8
:1018D0000196F8CF289884E68093770508952FB76E
:1018E000FC012083F89467706093E9000895CF931A
:1018F000DF931F92CDB7DEB7682FCE0101960E940D
:101900006F0C8091F20099819FBF0F90DF91CF9172
:101910000895EF92FF920F931F93CF93DF931F923F
:10192000CDB7DEB790917605992311F057FF03C02C
:101930008FEF9FEF2AC08A017B01682FCE010196AD
:101940000E946F0C8091F20090E0A801801791072F
:101950000CF4AC01842FF70194E6815038F02898FC
:10196000909377052091F1002193F7CF4115510510
:1019700021F08091F200882321F089818FBFCA0174
:1019800004C08BE68093E800F8CF0F90DF91CF91F1
:101990001F910F91FF90EF900895CF93DF931F92C7
:1019A000CDB7DEB741E050E0BE016F5F7F4F0E94D0
:1019B000890C019719F4898190E002C08FEF9FEFA5
:1019C0000F90DF91CF910895CF93DF931F92CDB702
:1019D000DEB7682FCE0101960E946F0C9091E8004F
:1019E000892F807295FF04C09091F20080E4891BDA
:1019F00099819FBF0F90DF91CF9108954F925F9291
:101A00006F927F928F929F92AF92BF92CF92DF920E
:101A1000EF92FF920F931F93CF93DF931F92CDB757
:101A2000DEB7A82E6B01B42E052F80917605882392
:101A300069F0E42EF52E8AEF782E8A2D8072582ECA
:101A40009AE3692E8A2D8074482E12C08FEF9FEF83
:101A500050C08A2D0E94E40C182F81110DC07A9479
:101A60007720A1F361E070E080E090E00E94B30A8B
:101A7000E114F10471F733C090E0E816F9060CF4B4
:101A80001E2D812E912CE818F9086A2DCE010196A1
:101A90000E946F0C552029F01150A8F01092F1000F
:101AA000FBCFF601A7FE07C0115058F08491809338
:101AB000F1003196F9CF115020F081918093F1001F
:101AC000FACFC80CD91C8091E80085FF0FC0E11443
:101AD000F10411F441100AC089818FBFC9CF5D980C
:101AE00084E6809378058B2D902F03C06092E800E8
:101AF000F3CF0F90DF91CF911F910F91FF90EF9057
:101B0000DF90CF90BF90AF909F908F907F906F901D
:101B10005F904F9008951092E90010927505109211
:101B20007405909373058093720508950F931F9326
:101B3000CF93DF93DB01A40FB51FFB016EEFEA1714
:101B4000FB0791F187FF02C0249101C02081009121
:101B5000740510917505C0917205D09173050C172D
:101B60001D07B4F49091E8009570E1F39091E800BE
:101B700092FD1CC02093F1002091740530917505F1
:101B80002F5F3F4F2F733327232B11F46093E8000F
:101B900020917405309175052F5F3F4F3093750587
:101BA000209374053196CBCFCA0102C08FEF9FEF0F
:101BB000DF91CF911F910F9108951F93CF93DF93E2
:101BC0001F92CDB7DEB7162F2091E80022FFFCCF81
:101BD000612F79830E94620C8BEF8093E800812F44
:101BE0007981972F0F90DF91CF911F910895CF9317
:101BF000DF931F92CDB7DEB71982CE0101960E9406
:101C00008811CE0101960E94D90F898190E00F9032
:101C1000DF91CF9108951F920F920FB60F9211246A
:101C2000CF92DF92EF92FF921F932F933F934F93A8
:101C30005F936F937F938F939F93AF93BF93EF9334
:101C4000FF93CF93DF93CDB7DEB76197DEBFCDBFF4
:101C50001092E9008091E80083FFE8C068E0CE01BF
:101C60000A960E94620C82EF8093E8009A8597FFA3
:101C700005C08091E80080FFFCCF03C08EEF809309
:101C8000E800892F807609F0B6C08B85811105C0E8
:101C90001092F1001092F100C2C0282F2D7F213048
:101CA00009F4BDC0853049F48091E80080FFFCCF85
:101CB0008C8580688093E300B2C0863009F06FC0E5
:101CC0001D85E888F988123069F580E090E00E946F
:101CD0008B0D0E94F70D99E09E012F5F3F4F690128
:101CE000F901292F11922A95E9F799831A8391E036
:101CF0009E8390E898879AEF998720917405309198
:101D00007505275F3F4F3C832B838D83C7010E945E
:101D10008B0D49E050E0B60180E00E94960D0E94D4
:101D2000F70D7DC0C7010E948B0D123241F482E293
:101D300090E00E94E40F892B09F071C074C011304B
:101D400069F488899989089711F410937105809135
:101D50007105811111C06FE275E016C0133009F0F2
:101D600062C08C85882359F0823061F0813009F09F
:101D70005AC061E475E008C06DE175E005C06BE72D
:101D800075E002C069E575E06115710509F44BC0A5
:101D9000FB01449150E080E80E94960D40C08730DE
:101DA00009F441C0883021F481E08093F10037C00C
:101DB0008930A9F59370B9F580E090E031E026E331
:101DC00041E0480F4093E9003093EB000196FC019D
:101DD000E85EFA4FE491E093EC002093ED0084304C
:101DE000910571F78EE78093EA001092EA008C85E6
:101DF0008093760514C0888999890E948B0D8E8501
:101E0000811105C0CE010A960E94931106C082304E
:101E100051F4CE010A960E940C10882321F08EEF17
:101E20008093E80003C081E28093EB0061960FB6D7
:101E3000F894DEBF0FBECDBFDF91CF91FF91EF9140
:101E4000BF91AF919F918F917F916F915F914F91D2
:101E50003F912F911F91FF90EF90DF90CF900F90C7
:101E60000FBE0F901F9018958093E9008091F200AB
:101E7000882319F08AE38093E8000895109276058C
:101E800081E08093D70080EA8093D80082E189BD09
:101E900009B400FEFDCF61E070E080E090E00E94B8
:101EA000B30A80E98093D8008CE08093E20010921E
:101EB000E000559A209A08951F920F920FB60F9244
:101EC00011242F933F934F935F936F937F938F933F
:101ED0009F93AF93BF93EF93FF938091E100109294
:101EE000E10083FF0FC01092E90091E09093EB00B6
:101EF0001092EC0092E39093ED001092760598E03A
:101F00009093F00082FF26C083E00E94340F82E0AD
:101F10000E94770C882321F086E895E00E943A1110
:101F200080917805882339F08091780581508093DD
:101F30007805882369F080917705882359F080918E
:101F40007705815080937705811104C0289A02C0DB
:101F50005D9AF1CFFF91EF91BF91AF919F918F91DA
:101F60007F916F915F914F913F912F910F900FBE95
:101F70000F901F901895EF92FF921F93CF93DF93CE
:101F8000EC01162FE881F9810480F581E02D099597
:101F90007C01E881F9810680F781E02D612FCE0177
:101FA0000995C7019927DF91CF911F91FF90EF907D
:101FB0000895FC0190819F5F908349E150E06FEFAD
:101FC00075E080E80C94960D45E650E068E176E017
:101FD00080E80C94960DEF92FF920F931F93CF938E
:101FE000DF931F92CDB7DEB789838B017A0141E081
:101FF00050E0BE016F5F7F4F84E00E94FE0CA7019E
:10200000B80184E40E94FE0C0F90DF91CF911F91E4
:102010000F91FF90EF900895FC0191818081813AAA
:1020200031F481E0913091F0933089F411C0813224
:1020300071F49B3021F482818093210105C09A3094
:1020400031F482818093200181E00895089580E039
:10205000089548E050E082E00C94EB0FDC01683812
:1020600010F068582DC0E62FF0E067FF11C0E0586F
:10207000F10981E090E001C0880FEA95EAF7149633
:102080009C911497892B14968C93149760E018C038
:10209000E158FA4F6491611109C081E090E0139614
:1020A0009C938E93129780E090E0089567FF08C09C
:1020B00014968C911497826014968C9314976F7772
:1020C00016968C911697861751F117968C91179743
:1020D000861729F118968C911897861701F1199691
:1020E0008C9119978617D9F01A968C911A978617A2
:1020F000B1F01B968C911B97861789F0FD013696DF
:1021000080E090E02191211105C0FD01E80FF91F49
:10211000668305C0019686309105A1F7BECFCD013B
:10212000BD016C5F7F4F0E94291081E090E008950F
:10213000DC01683810F0685825C0E62FF0E067FF32
:1021400012C0E058F10981E090E001C0880FEA95E3
:10215000EAF7809514969C911497892314968C9392
:10216000149760E00FC0E158FA4F6491662301F1C3
:1021700067FF08C014968C9114978D7F14968C93EA
:1021800014976F77FD01369686E0662321F09081E3
:10219000961301C01082815031968111F6CFCD0186
:1021A000BD016C5F7F4F0E94291081E090E008958F
:1021B00080E090E00895FC01168217821086118657
:1021C000128613861482BC016C5F7F4F0C94291019
:1021D00010928505E9E7F5E0138212828BEB91E01E
:1021E0009183808308958091D4059091D5052091A5
:1021F000D6053091D705821B930B8F7399270895CD
:102200002091D4053091D5058091D6059091D705C0
:102210002817390749F0E091D605F091D705EC561B
:10222000FA4F808190E008958FEF9FEF08952091FD
:10223000D4053091D5058091D6059091D705281702
:102240003907A9F0E091D605F091D705EC56FA4F81
:1022500080812091D6053091D7052F5F3F4F2F7396
:1022600033273093D7052093D60590E008958FEF5C
:102270009FEF0895CF93DF93C091D405D091D505FA
:102280002196CF73DD278091D6059091D705C81789
:10229000D90799F082E00E94CD0C8F3F2FEF920773
:1022A00061F0E091D405F091D505EC56FA4F8083AA
:1022B000D093D505C093D405DFCFDF91CF9108959A
:1022C00083E00C94340F0F931F93CF93DF931F92EF
:1022D000CDB7DEB78C01698380912901882359F03D
:1022E00041E050E0BE016F5F7F4F83E00E94FE0C33
:1022F000181619063CF081E090E0F8019383828380
:1023000080E090E00F90DF91CF911F910F910895A1
:10231000FC0190819E5F908342E450E06DE776E09F
:1023200080E80C94960DFC0181819081913A59F4DA
:10233000813209F04DC047E050E062E271E080E098
:102340000E94960D47C0913209F042C0803239F4A4
:1023500067E070E082E291E00E94DD0D3BC08232D6
:1023600009F036C0828180932901809122019091E9
:102370002301A0912401B0912501803B9440A10547
:10238000B10541F58091290180FD11C087E797E7EC
:1023900090930108809300089BE088E10FB6F894C1
:1023A000A895809360000FBE9093600013C00FB695
:1023B000F894A895809160008861809360001092E5
:1023C00060000FBEA895109201081092000802C08C
:1023D00080E0089581E008950895E6E8F5E013822D
:1023E000128288EE93E0A0E0B0E084839583A68318
:1023F000B78389EC91E091838083089584E991E02B
:102400000895CF93DF93EC0160E07BE486E895E0EC
:102410000E94EC116FEB76E086E895E00E94FE0BDF
:10242000E881F9810190F081E02DCE010995BC0190
:1024300086E895E0DF91CF910C94500CCB0160E2DF
:1024400070E00E94BB14FC011192CF010895CF935C
:10245000DF93EB016FED71E0CE010E94C614892B72
:1024600069F164EE71E0CE010E94C614892B31F14E
:102470006CEE71E0CE010E94C614892BF9F062EF78
:1024800071E0CE010E94C614892BC1F068EF71E0A3
:10249000CE010E94C614892B89F06CEF71E0CE0149
:1024A0000E94C614892B51F060E072E0CE010E94B8
:1024B000C61421E0892B19F020E001C021E0822F11
:1024C000DF91CF910895CF93DF93EB016FED71E032
:1024D000CE010E94C614892B69F164EE71E0CE0131
:1024E0000E94C614892B49F16CEE71E0CE010E9466
:1024F000C614892B29F162EF71E0CE010E94C61447
:10250000892B09F168EF71E0CE010E94C614892B76
:10251000E9F06CEF71E0CE010E94C614892BC9F07E
:1025200060E072E0CE010E94C614892BA9F080E71A
:1025300091E014C085E092E011C08AE292E00EC002
:1025400088E692E00BC081EA92E008C086ED92E056
:1025500005C081E693E002C089E093E0DF91CF916E
:102560000895CF92DF92EF92FF920F931F93CF9334
:10257000DF93CDB7DEB7CC58D1090FB6F894DEBFE4
:102580000FBECDBFDC0112962C91222309F48FC11E
:102590008C01BC016B5F7F4FCE0101960E94CF146E
:1025A000F80115821482138212826FED71E0CE0160
:1025B00001960E94C614892B19F460EE78E073C16D
:1025C00062EF71E0CE0101960E94C614892B61F47E
:1025D000D801ED91FC910480F581E02DC8010995A9
:1025E0008C0162ED78E01DC06CEE71E0CE010196C9
:1025F0000E94C614892B19F5D801ED91FC91068033
:10260000F781E02DC80109958C016FE978E086E833
:1026100095E00E94FE0BF8018081882359F06DE956
:1026200078E086E895E00E94FE0BB80186E895E028
:102630000E94210C86E895E00E942A0C38C160E0D7
:1026400072E0CE0101960E94C614892B19F462E54E
:1026500078E029C164EE71E0CE0101960E94C614B3
:10266000892B81F463E478E086E895E00E94FE0B14
:10267000D801ED91FC910190F081E02DC801099500
:10268000BC01DEC060E270E0CE0101960E94BB1486
:10269000892B09F4E0C0BE016F5F7F4FC8010E9423
:1026A0001E127C0160E072E0CE0101960E94C61409
:1026B000892BD9F560E270E0C7010E94BB14892B19
:1026C00019F06AE078E0EFC0B701C8010E94271254
:1026D000882341F0B701C8010E9463128C016AEFA0
:1026E00077E04CC0D801ED91FC910284F385E02D98
:1026F000B701C8010995882381F06AEE77E086E882
:1027000095E00E94FE0BD801ED91FC910280F381CF
:10271000E02DB701C8010995CAC067ED77E086E8EA
:1027200095E00E94FE0BB7018BC06CEF71E0CE010B
:1027300001960E94C614892B51F560E270E0C70132
:102740000E94BB14892B19F068EA77E0ACC0D8016D
:10275000ED91FC910084F185E02DB701C801099548
:10276000882391F0D801ED91FC910484F585E02D4A
:10277000B701C80109958C016DE977E086E895E01D
:102780000E94FE0BB8015CC063E877E08CC068EF84
:1027900071E0CE0101960E94C614892B61F560E2BA
:1027A00070E0C7010E94BB14892B19F466E577E03D
:1027B0007AC0B701C8010E941E12D801ED91FC91A8
:1027C0000684F785E02DAC01B701C8010995883C66
:1027D000910519F468E477E066C08439B1E09B079D
:1027E00019F46EE277E05FC0843F914009F05FC06A
:1027F0006EE177E058C06801F2E9CF0ED11CD60136
:102800001C92D801ED91FC910088F189E02DA7017F
:10281000BE016F5F7F4FC8010995883C9105A9F4FF
:1028200061E177E086E895E00E94FE0BF601808189
:10283000811103C06FE077E036C0B8016E567F4F5C
:1028400086E895E00E94500C32C08439914079F5B9
:1028500066EF76E028C0780122E9E20EF11CD7018C
:102860001C92D801ED91FC910088F189E02D40E0A7
:1028700050E0BE016F5F7F4FC8010995883C91050C
:1028800069F469EE76E086E895E00E94FE0BF701B8
:1028900080818111D2CF67EE76E005C08439914006
:1028A00031F46EEC76E086E895E00E943E0CC45769
:1028B000DF4F0FB6F894DEBF0FBECDBFDF91CF91D3
:1028C0001F910F91FF90EF90DF90CF900895CF93DD
:1028D000DF93EC0186E895E00E94F31018161906C4
:1028E000DCF486E895E00E9417112B813C812C389E
:1028F000310584F78A3069F0FE01E20FF31F85830A
:102900002F5F3F4FFE01E20FF31F15823C832B83A5
:10291000E1CF81E08A8301C01A82DF91CF910895CF
:10292000CF93DF93EC010E946714CE01DF91CF912A
:102930000C94B112FC0188279927E8942191203248
:10294000E9F3293010F02E30C8F32B3241F02D324C
:1029500039F4689404C00E94E114820F911D219102
:1029600020532A30C0F31EF4909581959F4F08950F
:10297000F8940C944115FC018191861721F088236D
:10298000D9F7992708953197CF010895FB01DC010C
:102990008D91019080190110D9F3990B0895FB01D5
:1029A000DC0101900D920020E1F70895BB274A3029
:1029B00031F4992322F4BDE2909581959F4F0C94B8
:1029C000EA147AE0979F902D879F802D910D112416
:1029D0000895BB27FB015527AA27880F991FAA1F17
:1029E000A41710F0A41B83955051B9F7A05DAA332A
:1029F00008F0A95DA193009779F7B111B1931192F5
:102A0000CB010C940315DC01FC01672F7191772336
:102A1000E1F7329704C07C916D9370836291AE1799
:102A2000BF07C8F3089597FB072E16F4009407D04C
:102A300077FD09D00E942D1507FC05D03EF4909536
:102A400081959F4F0895709561957F4F0895EE0F82
:102A5000FF1F0590F491E02D0994AA1BBB1B51E1C7
:102A600007C0AA1FBB1FA617B70710F0A61BB70BFE
:102A7000881F991F5A95A9F780959095BC01CD01A3
:102A8000089514E0C9E7D4E004C0FE010E942715B0
:0C2A90002196CA37D107C9F7F894FFCF90
:102A9C000300010001001000110007000E000D00E2
:102AAC00090006000C0004000B00030002000100EA
:102ABC00010100E10000000000006D6963726F62AB
:102ACC006974006579656F6E2C6579656F66662C27
:102ADC007363726F6C6C737472696E672C67657458
:102AEC00627574746F6E2C706C6F742C756E706C68
:102AFC006F742C636C656172646973706C617900BE
:102B0C002D006579656F6E006579656F666600737B
:102B1C0063726F6C6C737472696E67006765746254
:102B2C007574746F6E00756E706C6F7400000000BD
:102B3C0000A404F304A704AA04AD04B704AF04B2C0
:102B4C00047109FE11B50400000000BB0FC10B2E6F
:102B5C00109810DB10000000006311C10BF310176C
:102B6C0011001160113A11696F746F795F31007047
:102B7C00696E6700646576696E666F0066756E6374
:102B8C00730061747472730073657400676574000C
:102B9C0068656C700070696E67202D3E20706F6EDA
:102BAC00673A737472202D204150492074657374F8
:102BBC002066756E6374696F6E00646576696E6607
:102BCC006F202D3E206465766E616D653A7374726C
:102BDC00202D2072657475726E20696E666F726D31
:102BEC006174696F6E2061626F7574207468652002
:102BFC006465766963652E0066756E6373202D3E81
:102C0C002066756E636C6973743A7374722A202D26
:102C1C002052657475726E2061206C697374206F1C
:102C2C00662066756E6374696F6E206E616D657378
:102C3C00006174747273202D3E20617474726C691F
:102C4C0073743A7374722A202D2052657475726EE7
:102C5C002061206C697374206F66206174747269D2
:102C6C00627574657300736574206E616D653A737B
:102C7C0074722076616C75653A54202D20736574DE
:102C8C0020616E2061747472696275746520746F52
:102C9C0020612076616C75650068656C70206E61D2
:102CAC006D653A737472202D3E2068656C70746586
:102CBC0078743A737472202D2072657475726E205C
:102CCC0068656C7020666F722061206E616D652086
:102CDC004E423A20416C6C206E616D6573206172BE
:102CEC006520636173652073656E736974697665BD
:102CFC0000676574206E616D653A737472202D3EA9
:102D0C002076616C75653A54202D2072657475724D
:102D1C006E20616E206174747269627574652773BC
:082D2C002076616C7565000062
:00000001FF
